{
  "contractName": "Todo",
  "abi": [
    {
      "anonymous": false,
      "inputs": [
        {
          "indexed": false,
          "internalType": "bool",
          "name": "success",
          "type": "bool"
        },
        {
          "components": [
            {
              "internalType": "uint256",
              "name": "id",
              "type": "uint256"
            },
            {
              "internalType": "string",
              "name": "title",
              "type": "string"
            },
            {
              "internalType": "string",
              "name": "body",
              "type": "string"
            },
            {
              "internalType": "bool",
              "name": "completed",
              "type": "bool"
            }
          ],
          "indexed": false,
          "internalType": "struct Todo.Task",
          "name": "createdTask",
          "type": "tuple"
        }
      ],
      "name": "TaskCreation",
      "type": "event"
    },
    {
      "anonymous": false,
      "inputs": [
        {
          "components": [
            {
              "internalType": "uint256",
              "name": "id",
              "type": "uint256"
            },
            {
              "internalType": "string",
              "name": "title",
              "type": "string"
            },
            {
              "internalType": "string",
              "name": "body",
              "type": "string"
            },
            {
              "internalType": "bool",
              "name": "completed",
              "type": "bool"
            }
          ],
          "indexed": false,
          "internalType": "struct Todo.Task[]",
          "name": "array",
          "type": "tuple[]"
        }
      ],
      "name": "allTasks",
      "type": "event"
    },
    {
      "inputs": [],
      "name": "taskCount",
      "outputs": [
        {
          "internalType": "uint256",
          "name": "",
          "type": "uint256"
        }
      ],
      "stateMutability": "view",
      "type": "function",
      "constant": true
    },
    {
      "inputs": [
        {
          "internalType": "uint256",
          "name": "",
          "type": "uint256"
        }
      ],
      "name": "tasks",
      "outputs": [
        {
          "internalType": "uint256",
          "name": "id",
          "type": "uint256"
        },
        {
          "internalType": "string",
          "name": "title",
          "type": "string"
        },
        {
          "internalType": "string",
          "name": "body",
          "type": "string"
        },
        {
          "internalType": "bool",
          "name": "completed",
          "type": "bool"
        }
      ],
      "stateMutability": "view",
      "type": "function",
      "constant": true
    },
    {
      "inputs": [
        {
          "internalType": "uint256",
          "name": "",
          "type": "uint256"
        }
      ],
      "name": "tasksArray",
      "outputs": [
        {
          "internalType": "uint256",
          "name": "id",
          "type": "uint256"
        },
        {
          "internalType": "string",
          "name": "title",
          "type": "string"
        },
        {
          "internalType": "string",
          "name": "body",
          "type": "string"
        },
        {
          "internalType": "bool",
          "name": "completed",
          "type": "bool"
        }
      ],
      "stateMutability": "view",
      "type": "function",
      "constant": true
    },
    {
      "inputs": [
        {
          "internalType": "string",
          "name": "title",
          "type": "string"
        },
        {
          "internalType": "string",
          "name": "body",
          "type": "string"
        }
      ],
      "name": "createTask",
      "outputs": [
        {
          "internalType": "bool",
          "name": "",
          "type": "bool"
        }
      ],
      "stateMutability": "nonpayable",
      "type": "function"
    },
    {
      "inputs": [
        {
          "internalType": "uint256",
          "name": "id",
          "type": "uint256"
        },
        {
          "internalType": "string",
          "name": "title",
          "type": "string"
        },
        {
          "internalType": "string",
          "name": "body",
          "type": "string"
        },
        {
          "internalType": "bool",
          "name": "completed",
          "type": "bool"
        }
      ],
      "name": "editTask",
      "outputs": [
        {
          "internalType": "bool",
          "name": "",
          "type": "bool"
        }
      ],
      "stateMutability": "nonpayable",
      "type": "function"
    },
    {
      "inputs": [
        {
          "internalType": "uint256",
          "name": "id",
          "type": "uint256"
        }
      ],
      "name": "deleteTask",
      "outputs": [
        {
          "internalType": "bool",
          "name": "",
          "type": "bool"
        }
      ],
      "stateMutability": "nonpayable",
      "type": "function"
    },
    {
      "inputs": [],
      "name": "getTasks",
      "outputs": [
        {
          "components": [
            {
              "internalType": "uint256",
              "name": "id",
              "type": "uint256"
            },
            {
              "internalType": "string",
              "name": "title",
              "type": "string"
            },
            {
              "internalType": "string",
              "name": "body",
              "type": "string"
            },
            {
              "internalType": "bool",
              "name": "completed",
              "type": "bool"
            }
          ],
          "internalType": "struct Todo.Task[]",
          "name": "",
          "type": "tuple[]"
        }
      ],
      "stateMutability": "nonpayable",
      "type": "function"
    }
  ],
  "bytecode": "0x60806040526000805534801561001457600080fd5b506115ce806100246000396000f3fe608060405234801561001057600080fd5b506004361061007d5760003560e01c8063560f31921161005b578063560f3192146101035780638d97767214610133578063b6cb58a514610166578063fa4c9baf146101845761007d565b806304a87e3814610082578063292a4585146100a057806333251a3a146100d0575b600080fd5b61008a6101b4565b604051610097919061111b565b60405180910390f35b6100ba60048036038101906100b59190610c4a565b610394565b6040516100c7919061115f565b60405180910390f35b6100ea60048036038101906100e59190610cb6565b61055d565b6040516100fa94939291906111c5565b60405180910390f35b61011d60048036038101906101189190610cb6565b6106ba565b60405161012a919061115f565b60405180910390f35b61014d60048036038101906101489190610cb6565b6107fd565b60405161015d94939291906111c5565b60405180910390f35b61016e61094a565b60405161017b91906111aa565b60405180910390f35b61019e60048036038101906101999190610cdf565b610950565b6040516101ab919061115f565b60405180910390f35b60607fc9c4ef64011d1ab57c39e6238c74cd5b9e88369d663691440e143fc26a57b73260016040516101e6919061113d565b60405180910390a16001805480602002602001604051908101604052809291908181526020016000905b8282101561038b57838290600052602060002090600402016040518060800160405290816000820154815260200160018201805461024d90611410565b80601f016020809104026020016040519081016040528092919081815260200182805461027990611410565b80156102c65780601f1061029b576101008083540402835291602001916102c6565b820191906000526020600020905b8154815290600101906020018083116102a957829003601f168201915b505050505081526020016002820180546102df90611410565b80601f016020809104026020016040519081016040528092919081815260200182805461030b90611410565b80156103585780601f1061032d57610100808354040283529160200191610358565b820191906000526020600020905b81548152906001019060200180831161033b57829003601f168201915b505050505081526020016003820160009054906101000a900460ff16151515158152505081526020019060010190610210565b50505050905090565b60008060008154809291906103a890611476565b91905055506040518060800160405280600054815260200184815260200183815260200160001515815250600260008054815260200190815260200160002060008201518160000155602082015181600101908051906020019061040d929190610a48565b50604082015181600201908051906020019061042a929190610a48565b5060608201518160030160006101000a81548160ff0219169083151502179055509050506001600260008054815260200190815260200160002090806001815401808255809150506001900390600052602060002090600402016000909190919091506000820154816000015560018201816001019080546104ab90611410565b6104b6929190610ace565b5060028201816002019080546104cb90611410565b6104d6929190610ace565b506003820160009054906101000a900460ff168160030160006101000a81548160ff02191690831515021790555050507f7719e8c4e9e93867798df5dcd2f845f393b5ed9ff56e05932d6e7df361e48bde6001600260008054815260200190815260200160002060405161054b92919061117a565b60405180910390a16001905092915050565b6001818154811061056d57600080fd5b906000526020600020906004020160009150905080600001549080600101805461059690611410565b80601f01602080910402602001604051908101604052809291908181526020018280546105c290611410565b801561060f5780601f106105e45761010080835404028352916020019161060f565b820191906000526020600020905b8154815290600101906020018083116105f257829003601f168201915b50505050509080600201805461062490611410565b80601f016020809104026020016040519081016040528092919081815260200182805461065090611410565b801561069d5780601f106106725761010080835404028352916020019161069d565b820191906000526020600020905b81548152906001019060200180831161068057829003601f168201915b5050505050908060030160009054906101000a900460ff16905084565b6000600260008381526020019081526020016000206000808201600090556001820160006106e89190610b5b565b6002820160006106f89190610b5b565b6003820160006101000a81549060ff02191690555050600080815480929190610720906113e6565b919050555060008290505b60005481116107f357600260006001856107459190611321565b81526020019081526020016000206002600085815260200190815260200160002060008201548160000155600182018160010190805461078490611410565b61078f929190610ace565b5060028201816002019080546107a490611410565b6107af929190610ace565b506003820160009054906101000a900460ff168160030160006101000a81548160ff02191690831515021790555090505080806107eb90611476565b91505061072b565b5060019050919050565b600260205280600052604060002060009150905080600001549080600101805461082690611410565b80601f016020809104026020016040519081016040528092919081815260200182805461085290611410565b801561089f5780601f106108745761010080835404028352916020019161089f565b820191906000526020600020905b81548152906001019060200180831161088257829003601f168201915b5050505050908060020180546108b490611410565b80601f01602080910402602001604051908101604052809291908181526020018280546108e090611410565b801561092d5780601f106109025761010080835404028352916020019161092d565b820191906000526020600020905b81548152906001019060200180831161091057829003601f168201915b5050505050908060030160009054906101000a900460ff16905084565b60005481565b60006040518060800160405280868152602001858152602001848152602001831515815250600260008781526020019081526020016000206000820151816000015560208201518160010190805190602001906109ae929190610a48565b5060408201518160020190805190602001906109cb929190610a48565b5060608201518160030160006101000a81548160ff0219169083151502179055509050507f7719e8c4e9e93867798df5dcd2f845f393b5ed9ff56e05932d6e7df361e48bde60016002600080548152602001908152602001600020604051610a3492919061117a565b60405180910390a160019050949350505050565b828054610a5490611410565b90600052602060002090601f016020900481019282610a765760008555610abd565b82601f10610a8f57805160ff1916838001178555610abd565b82800160010185558215610abd579182015b82811115610abc578251825591602001919060010190610aa1565b5b509050610aca9190610b9b565b5090565b828054610ada90611410565b90600052602060002090601f016020900481019282610afc5760008555610b4a565b82601f10610b0d5780548555610b4a565b82800160010185558215610b4a57600052602060002091601f016020900482015b82811115610b49578254825591600101919060010190610b2e565b5b509050610b579190610b9b565b5090565b508054610b6790611410565b6000825580601f10610b795750610b98565b601f016020900490600052602060002090810190610b979190610b9b565b5b50565b5b80821115610bb4576000816000905550600101610b9c565b5090565b6000610bcb610bc684611249565b611218565b905082815260208101848484011115610be357600080fd5b610bee8482856113a4565b509392505050565b600081359050610c058161156a565b92915050565b600082601f830112610c1c57600080fd5b8135610c2c848260208601610bb8565b91505092915050565b600081359050610c4481611581565b92915050565b60008060408385031215610c5d57600080fd5b600083013567ffffffffffffffff811115610c7757600080fd5b610c8385828601610c0b565b925050602083013567ffffffffffffffff811115610ca057600080fd5b610cac85828601610c0b565b9150509250929050565b600060208284031215610cc857600080fd5b6000610cd684828501610c35565b91505092915050565b60008060008060808587031215610cf557600080fd5b6000610d0387828801610c35565b945050602085013567ffffffffffffffff811115610d2057600080fd5b610d2c87828801610c0b565b935050604085013567ffffffffffffffff811115610d4957600080fd5b610d5587828801610c0b565b9250506060610d6687828801610bf6565b91505092959194509250565b6000610d7e8383610f93565b905092915050565b6000610d928383610ffd565b905092915050565b6000610da5826112b3565b610daf81856112ee565b935083602082028501610dc185611279565b8060005b85811015610dfd5784840389528151610dde8582610d72565b9450610de9836112d4565b925060208a01995050600181019050610dc5565b50829750879550505050505092915050565b6000610e1a826112be565b610e2481856112ee565b935083602082028501610e3685611289565b8060005b85811015610e7157848403895281610e528582610d86565b9450610e5d836112e1565b925060208a01995050600181019050610e3a565b50829750879550505050505092915050565b610e8c8161138e565b82525050565b610e9b8161138e565b82525050565b6000610eac826112c9565b610eb681856112ff565b9350610ec68185602086016113b3565b610ecf8161154c565b840191505092915050565b6000610ee5826112c9565b610eef8185611310565b9350610eff8185602086016113b3565b610f088161154c565b840191505092915050565b60008154610f2081611410565b610f2a81866112ff565b94506001821660008114610f455760018114610f5757610f8a565b60ff1983168652602086019350610f8a565b610f608561129e565b60005b83811015610f8257815481890152600182019150602081019050610f63565b808801955050505b50505092915050565b6000608083016000830151610fab60008601826110fd565b5060208301518482036020860152610fc38282610ea1565b91505060408301518482036040860152610fdd8282610ea1565b9150506060830151610ff26060860182610e83565b508091505092915050565b60006080830160008084015490506110148161145c565b61102160008701826110fd565b506001840185830360208701526110388382610f13565b9250506002840185830360408701526110518382610f13565b9250506003840154905061106481611442565b6110716060870182610e83565b50819250505092915050565b60006080830160008084015490506110948161145c565b6110a160008701826110fd565b506001840185830360208701526110b88382610f13565b9250506002840185830360408701526110d18382610f13565b925050600384015490506110e481611442565b6110f16060870182610e83565b50819250505092915050565b6111068161139a565b82525050565b6111158161139a565b82525050565b600060208201905081810360008301526111358184610d9a565b905092915050565b600060208201905081810360008301526111578184610e0f565b905092915050565b60006020820190506111746000830184610e92565b92915050565b600060408201905061118f6000830185610e92565b81810360208301526111a1818461107d565b90509392505050565b60006020820190506111bf600083018461110c565b92915050565b60006080820190506111da600083018761110c565b81810360208301526111ec8186610eda565b905081810360408301526112008185610eda565b905061120f6060830184610e92565b95945050505050565b6000604051905081810181811067ffffffffffffffff8211171561123f5761123e61151d565b5b8060405250919050565b600067ffffffffffffffff8211156112645761126361151d565b5b601f19601f8301169050602081019050919050565b6000819050602082019050919050565b60008190508160005260206000209050919050565b60008190508160005260206000209050919050565b600081519050919050565b600081549050919050565b600081519050919050565b6000602082019050919050565b6000600482019050919050565b600082825260208201905092915050565b600082825260208201905092915050565b600082825260208201905092915050565b600061132c8261139a565b91506113378361139a565b9250827fffffffffffffffffffffffffffffffffffffffffffffffffffffffffffffffff0382111561136c5761136b6114bf565b5b828201905092915050565b600060ff82169050919050565b6000819050919050565b60008115159050919050565b6000819050919050565b82818337600083830152505050565b60005b838110156113d15780820151818401526020810190506113b6565b838111156113e0576000848401525b50505050565b60006113f18261139a565b91506000821415611405576114046114bf565b5b600182039050919050565b6000600282049050600182168061142857607f821691505b6020821081141561143c5761143b6114ee565b5b50919050565b60006114556114508361155d565b611377565b9050919050565b600061146f61146a8361155d565b611384565b9050919050565b60006114818261139a565b91507fffffffffffffffffffffffffffffffffffffffffffffffffffffffffffffffff8214156114b4576114b36114bf565b5b600182019050919050565b7f4e487b7100000000000000000000000000000000000000000000000000000000600052601160045260246000fd5b7f4e487b7100000000000000000000000000000000000000000000000000000000600052602260045260246000fd5b7f4e487b7100000000000000000000000000000000000000000000000000000000600052604160045260246000fd5b6000601f19601f8301169050919050565b60008160001c9050919050565b6115738161138e565b811461157e57600080fd5b50565b61158a8161139a565b811461159557600080fd5b5056fea264697066735822122006f674439aa65bb6ffda373043e3ea41e21945e00c74a26ca2e3d6f7078df84764736f6c63430008000033",
  "immutableReferences": {},
  "source": "// SPDX-License-Identifier: MIT\r\npragma solidity ^0.8.0;\r\n\r\ncontract Todo{\r\n    uint public taskCount=0;\r\n    Task[] public tasksArray;\r\n\r\n    struct Task{\r\n        uint id;\r\n        string title;\r\n        string body;\r\n        bool completed;\r\n    }\r\n\r\n    event TaskCreation(\r\n        bool success,\r\n        Task createdTask\r\n    );\r\n\r\n    event allTasks(\r\n        Task[] array\r\n    );\r\n\r\n    mapping(uint=> Task) public tasks;\r\n\r\n    function createTask(string memory title, string memory body) public returns(bool){\r\n        taskCount++;\r\n        tasks[taskCount]=Task(taskCount,title,body,false);\r\n        tasksArray.push(tasks[taskCount]);\r\n        emit TaskCreation(true,tasks[taskCount]);\r\n        return true;\r\n    }\r\n\r\n    function editTask(uint id,string memory title,string memory body,bool completed) public returns(bool){\r\n        tasks[id]=Task(id,title,body,completed);\r\n        emit TaskCreation(true,tasks[taskCount]);\r\n        return true;\r\n    }\r\n\r\n    function deleteTask(uint id) public returns(bool){\r\n        delete tasks[id];\r\n        taskCount--;\r\n        for(uint i=id;i<=taskCount;i++){\r\n            tasks[id]=tasks[id+1];\r\n        }\r\n        return true;\r\n    }\r\n\r\n    function getTasks() public returns(Task[] memory){\r\n        emit allTasks(tasksArray);\r\n        return tasksArray;\r\n    }\r\n\r\n}",
  "sourcePath": "E:\\Blockchain\\Todo\\contracts\\Todo.sol",
  "compiler": {
    "name": "solc",
    "version": "0.8.0+commit.c7dfd78e.Emscripten.clang"
  },
  "schemaVersion": "3.4.4",
  "updatedAt": "2022-04-25T04:53:00.839Z",
  "networkType": "ethereum",
  "devdoc": {
    "kind": "dev",
    "methods": {},
    "version": 1
  },
  "userdoc": {
    "kind": "user",
    "methods": {},
    "version": 1
  }
}