{
  "contractName": "Todo",
  "abi": [
    {
      "anonymous": false,
      "inputs": [
        {
          "indexed": false,
          "internalType": "bool",
          "name": "success",
          "type": "bool"
        },
        {
          "components": [
            {
              "internalType": "uint256",
              "name": "id",
              "type": "uint256"
            },
            {
              "internalType": "string",
              "name": "title",
              "type": "string"
            },
            {
              "internalType": "string",
              "name": "body",
              "type": "string"
            },
            {
              "internalType": "bool",
              "name": "completed",
              "type": "bool"
            }
          ],
          "indexed": false,
          "internalType": "struct Todo.Task",
          "name": "createdTask",
          "type": "tuple"
        }
      ],
      "name": "TaskCreation",
      "type": "event"
    },
    {
      "anonymous": false,
      "inputs": [
        {
          "components": [
            {
              "internalType": "uint256",
              "name": "id",
              "type": "uint256"
            },
            {
              "internalType": "string",
              "name": "title",
              "type": "string"
            },
            {
              "internalType": "string",
              "name": "body",
              "type": "string"
            },
            {
              "internalType": "bool",
              "name": "completed",
              "type": "bool"
            }
          ],
          "indexed": false,
          "internalType": "struct Todo.Task[]",
          "name": "array",
          "type": "tuple[]"
        }
      ],
      "name": "allTasks",
      "type": "event"
    },
    {
      "inputs": [],
      "name": "taskCount",
      "outputs": [
        {
          "internalType": "uint256",
          "name": "",
          "type": "uint256"
        }
      ],
      "stateMutability": "view",
      "type": "function",
      "constant": true
    },
    {
      "inputs": [
        {
          "internalType": "uint256",
          "name": "",
          "type": "uint256"
        }
      ],
      "name": "tasks",
      "outputs": [
        {
          "internalType": "uint256",
          "name": "id",
          "type": "uint256"
        },
        {
          "internalType": "string",
          "name": "title",
          "type": "string"
        },
        {
          "internalType": "string",
          "name": "body",
          "type": "string"
        },
        {
          "internalType": "bool",
          "name": "completed",
          "type": "bool"
        }
      ],
      "stateMutability": "view",
      "type": "function",
      "constant": true
    },
    {
      "inputs": [
        {
          "internalType": "uint256",
          "name": "",
          "type": "uint256"
        }
      ],
      "name": "tasksArray",
      "outputs": [
        {
          "internalType": "uint256",
          "name": "id",
          "type": "uint256"
        },
        {
          "internalType": "string",
          "name": "title",
          "type": "string"
        },
        {
          "internalType": "string",
          "name": "body",
          "type": "string"
        },
        {
          "internalType": "bool",
          "name": "completed",
          "type": "bool"
        }
      ],
      "stateMutability": "view",
      "type": "function",
      "constant": true
    },
    {
      "inputs": [
        {
          "internalType": "string",
          "name": "title",
          "type": "string"
        },
        {
          "internalType": "string",
          "name": "body",
          "type": "string"
        }
      ],
      "name": "createTask",
      "outputs": [
        {
          "internalType": "bool",
          "name": "",
          "type": "bool"
        }
      ],
      "stateMutability": "nonpayable",
      "type": "function"
    },
    {
      "inputs": [
        {
          "internalType": "uint256",
          "name": "id",
          "type": "uint256"
        },
        {
          "internalType": "string",
          "name": "title",
          "type": "string"
        },
        {
          "internalType": "string",
          "name": "body",
          "type": "string"
        },
        {
          "internalType": "bool",
          "name": "completed",
          "type": "bool"
        }
      ],
      "name": "editTask",
      "outputs": [
        {
          "internalType": "bool",
          "name": "",
          "type": "bool"
        }
      ],
      "stateMutability": "nonpayable",
      "type": "function"
    },
    {
      "inputs": [
        {
          "internalType": "uint256",
          "name": "id",
          "type": "uint256"
        }
      ],
      "name": "deleteTask",
      "outputs": [
        {
          "internalType": "bool",
          "name": "",
          "type": "bool"
        }
      ],
      "stateMutability": "nonpayable",
      "type": "function"
    },
    {
      "inputs": [],
      "name": "getTasks",
      "outputs": [
        {
          "components": [
            {
              "internalType": "uint256",
              "name": "id",
              "type": "uint256"
            },
            {
              "internalType": "string",
              "name": "title",
              "type": "string"
            },
            {
              "internalType": "string",
              "name": "body",
              "type": "string"
            },
            {
              "internalType": "bool",
              "name": "completed",
              "type": "bool"
            }
          ],
          "internalType": "struct Todo.Task[]",
          "name": "",
          "type": "tuple[]"
        }
      ],
      "stateMutability": "nonpayable",
      "type": "function"
    }
  ],
  "bytecode": "0x60806040526000805534801561001457600080fd5b506114a9806100246000396000f3fe608060405234801561001057600080fd5b506004361061007d5760003560e01c8063560f31921161005b578063560f3192146101035780638d97767214610133578063b6cb58a514610166578063fa4c9baf146101845761007d565b806304a87e3814610082578063292a4585146100a057806333251a3a146100d0575b600080fd5b61008a6101b4565b604051610097919061104c565b60405180910390f35b6100ba60048036038101906100b59190610b7b565b610394565b6040516100c79190611090565b60405180910390f35b6100ea60048036038101906100e59190610be7565b61055d565b6040516100fa94939291906110f6565b60405180910390f35b61011d60048036038101906101189190610be7565b6106ba565b60405161012a9190611090565b60405180910390f35b61014d60048036038101906101489190610be7565b61072e565b60405161015d94939291906110f6565b60405180910390f35b61016e61087b565b60405161017b91906110db565b60405180910390f35b61019e60048036038101906101999190610c10565b610881565b6040516101ab9190611090565b60405180910390f35b60607fc9c4ef64011d1ab57c39e6238c74cd5b9e88369d663691440e143fc26a57b73260016040516101e6919061106e565b60405180910390a16001805480602002602001604051908101604052809291908181526020016000905b8282101561038b57838290600052602060002090600402016040518060800160405290816000820154815260200160018201805461024d906112eb565b80601f0160208091040260200160405190810160405280929190818152602001828054610279906112eb565b80156102c65780601f1061029b576101008083540402835291602001916102c6565b820191906000526020600020905b8154815290600101906020018083116102a957829003601f168201915b505050505081526020016002820180546102df906112eb565b80601f016020809104026020016040519081016040528092919081815260200182805461030b906112eb565b80156103585780601f1061032d57610100808354040283529160200191610358565b820191906000526020600020905b81548152906001019060200180831161033b57829003601f168201915b505050505081526020016003820160009054906101000a900460ff16151515158152505081526020019060010190610210565b50505050905090565b6000604051806080016040528060005481526020018481526020018381526020016000151581525060026000805481526020019081526020016000206000820151816000015560208201518160010190805190602001906103f6929190610979565b506040820151816002019080519060200190610413929190610979565b5060608201518160030160006101000a81548160ff021916908315150217905550905050600160026000805481526020019081526020016000209080600181540180825580915050600190039060005260206000209060040201600090919091909150600082015481600001556001820181600101908054610494906112eb565b61049f9291906109ff565b5060028201816002019080546104b4906112eb565b6104bf9291906109ff565b506003820160009054906101000a900460ff168160030160006101000a81548160ff02191690831515021790555050507f7719e8c4e9e93867798df5dcd2f845f393b5ed9ff56e05932d6e7df361e48bde600160026000805481526020019081526020016000206040516105349291906110ab565b60405180910390a160008081548092919061054e90611351565b91905055506001905092915050565b6001818154811061056d57600080fd5b9060005260206000209060040201600091509050806000015490806001018054610596906112eb565b80601f01602080910402602001604051908101604052809291908181526020018280546105c2906112eb565b801561060f5780601f106105e45761010080835404028352916020019161060f565b820191906000526020600020905b8154815290600101906020018083116105f257829003601f168201915b505050505090806002018054610624906112eb565b80601f0160208091040260200160405190810160405280929190818152602001828054610650906112eb565b801561069d5780601f106106725761010080835404028352916020019161069d565b820191906000526020600020905b81548152906001019060200180831161068057829003601f168201915b5050505050908060030160009054906101000a900460ff16905084565b6000600260008381526020019081526020016000206000808201600090556001820160006106e89190610a8c565b6002820160006106f89190610a8c565b6003820160006101000a81549060ff02191690555050600080815480929190610720906112c1565b919050555060019050919050565b6002602052806000526040600020600091509050806000015490806001018054610757906112eb565b80601f0160208091040260200160405190810160405280929190818152602001828054610783906112eb565b80156107d05780601f106107a5576101008083540402835291602001916107d0565b820191906000526020600020905b8154815290600101906020018083116107b357829003601f168201915b5050505050908060020180546107e5906112eb565b80601f0160208091040260200160405190810160405280929190818152602001828054610811906112eb565b801561085e5780601f106108335761010080835404028352916020019161085e565b820191906000526020600020905b81548152906001019060200180831161084157829003601f168201915b5050505050908060030160009054906101000a900460ff16905084565b60005481565b60006040518060800160405280868152602001858152602001848152602001831515815250600260008781526020019081526020016000206000820151816000015560208201518160010190805190602001906108df929190610979565b5060408201518160020190805190602001906108fc929190610979565b5060608201518160030160006101000a81548160ff0219169083151502179055509050507f7719e8c4e9e93867798df5dcd2f845f393b5ed9ff56e05932d6e7df361e48bde600160026000805481526020019081526020016000206040516109659291906110ab565b60405180910390a160019050949350505050565b828054610985906112eb565b90600052602060002090601f0160209004810192826109a757600085556109ee565b82601f106109c057805160ff19168380011785556109ee565b828001600101855582156109ee579182015b828111156109ed5782518255916020019190600101906109d2565b5b5090506109fb9190610acc565b5090565b828054610a0b906112eb565b90600052602060002090601f016020900481019282610a2d5760008555610a7b565b82601f10610a3e5780548555610a7b565b82800160010185558215610a7b57600052602060002091601f016020900482015b82811115610a7a578254825591600101919060010190610a5f565b5b509050610a889190610acc565b5090565b508054610a98906112eb565b6000825580601f10610aaa5750610ac9565b601f016020900490600052602060002090810190610ac89190610acc565b5b50565b5b80821115610ae5576000816000905550600101610acd565b5090565b6000610afc610af78461117a565b611149565b905082815260208101848484011115610b1457600080fd5b610b1f84828561127f565b509392505050565b600081359050610b3681611445565b92915050565b600082601f830112610b4d57600080fd5b8135610b5d848260208601610ae9565b91505092915050565b600081359050610b758161145c565b92915050565b60008060408385031215610b8e57600080fd5b600083013567ffffffffffffffff811115610ba857600080fd5b610bb485828601610b3c565b925050602083013567ffffffffffffffff811115610bd157600080fd5b610bdd85828601610b3c565b9150509250929050565b600060208284031215610bf957600080fd5b6000610c0784828501610b66565b91505092915050565b60008060008060808587031215610c2657600080fd5b6000610c3487828801610b66565b945050602085013567ffffffffffffffff811115610c5157600080fd5b610c5d87828801610b3c565b935050604085013567ffffffffffffffff811115610c7a57600080fd5b610c8687828801610b3c565b9250506060610c9787828801610b27565b91505092959194509250565b6000610caf8383610ec4565b905092915050565b6000610cc38383610f2e565b905092915050565b6000610cd6826111e4565b610ce0818561121f565b935083602082028501610cf2856111aa565b8060005b85811015610d2e5784840389528151610d0f8582610ca3565b9450610d1a83611205565b925060208a01995050600181019050610cf6565b50829750879550505050505092915050565b6000610d4b826111ef565b610d55818561121f565b935083602082028501610d67856111ba565b8060005b85811015610da257848403895281610d838582610cb7565b9450610d8e83611212565b925060208a01995050600181019050610d6b565b50829750879550505050505092915050565b610dbd81611269565b82525050565b610dcc81611269565b82525050565b6000610ddd826111fa565b610de78185611230565b9350610df781856020860161128e565b610e0081611427565b840191505092915050565b6000610e16826111fa565b610e208185611241565b9350610e3081856020860161128e565b610e3981611427565b840191505092915050565b60008154610e51816112eb565b610e5b8186611230565b94506001821660008114610e765760018114610e8857610ebb565b60ff1983168652602086019350610ebb565b610e91856111cf565b60005b83811015610eb357815481890152600182019150602081019050610e94565b808801955050505b50505092915050565b6000608083016000830151610edc600086018261102e565b5060208301518482036020860152610ef48282610dd2565b91505060408301518482036040860152610f0e8282610dd2565b9150506060830151610f236060860182610db4565b508091505092915050565b6000608083016000808401549050610f4581611337565b610f52600087018261102e565b50600184018583036020870152610f698382610e44565b925050600284018583036040870152610f828382610e44565b92505060038401549050610f958161131d565b610fa26060870182610db4565b50819250505092915050565b6000608083016000808401549050610fc581611337565b610fd2600087018261102e565b50600184018583036020870152610fe98382610e44565b9250506002840185830360408701526110028382610e44565b925050600384015490506110158161131d565b6110226060870182610db4565b50819250505092915050565b61103781611275565b82525050565b61104681611275565b82525050565b600060208201905081810360008301526110668184610ccb565b905092915050565b600060208201905081810360008301526110888184610d40565b905092915050565b60006020820190506110a56000830184610dc3565b92915050565b60006040820190506110c06000830185610dc3565b81810360208301526110d28184610fae565b90509392505050565b60006020820190506110f0600083018461103d565b92915050565b600060808201905061110b600083018761103d565b818103602083015261111d8186610e0b565b905081810360408301526111318185610e0b565b90506111406060830184610dc3565b95945050505050565b6000604051905081810181811067ffffffffffffffff821117156111705761116f6113f8565b5b8060405250919050565b600067ffffffffffffffff821115611195576111946113f8565b5b601f19601f8301169050602081019050919050565b6000819050602082019050919050565b60008190508160005260206000209050919050565b60008190508160005260206000209050919050565b600081519050919050565b600081549050919050565b600081519050919050565b6000602082019050919050565b6000600482019050919050565b600082825260208201905092915050565b600082825260208201905092915050565b600082825260208201905092915050565b600060ff82169050919050565b6000819050919050565b60008115159050919050565b6000819050919050565b82818337600083830152505050565b60005b838110156112ac578082015181840152602081019050611291565b838111156112bb576000848401525b50505050565b60006112cc82611275565b915060008214156112e0576112df61139a565b5b600182039050919050565b6000600282049050600182168061130357607f821691505b60208210811415611317576113166113c9565b5b50919050565b600061133061132b83611438565b611252565b9050919050565b600061134a61134583611438565b61125f565b9050919050565b600061135c82611275565b91507fffffffffffffffffffffffffffffffffffffffffffffffffffffffffffffffff82141561138f5761138e61139a565b5b600182019050919050565b7f4e487b7100000000000000000000000000000000000000000000000000000000600052601160045260246000fd5b7f4e487b7100000000000000000000000000000000000000000000000000000000600052602260045260246000fd5b7f4e487b7100000000000000000000000000000000000000000000000000000000600052604160045260246000fd5b6000601f19601f8301169050919050565b60008160001c9050919050565b61144e81611269565b811461145957600080fd5b50565b61146581611275565b811461147057600080fd5b5056fea2646970667358221220f59b763d043cd2b134e74cc77fc15fc908a64e8afa7a8c3db6291ff1ec5a8a9064736f6c63430008000033",
  "immutableReferences": {},
  "source": "// SPDX-License-Identifier: MIT\r\npragma solidity ^0.8.0;\r\n\r\ncontract Todo{\r\n    uint public taskCount=0;\r\n    Task[] public tasksArray;\r\n\r\n    struct Task{\r\n        uint id;\r\n        string title;\r\n        string body;\r\n        bool completed;\r\n    }\r\n\r\n    event TaskCreation(\r\n        bool success,\r\n        Task createdTask\r\n    );\r\n\r\n    event allTasks(\r\n        Task[] array\r\n    );\r\n\r\n    mapping(uint=> Task) public tasks;\r\n\r\n    function createTask(string memory title, string memory body) public returns(bool){\r\n        tasks[taskCount]=Task(taskCount,title,body,false);\r\n        tasksArray.push(tasks[taskCount]);\r\n        emit TaskCreation(true,tasks[taskCount]);\r\n        taskCount++;\r\n        return true;\r\n    }\r\n\r\n    function editTask(uint id,string memory title,string memory body,bool completed) public returns(bool){\r\n        tasks[id]=Task(id,title,body,completed);\r\n        emit TaskCreation(true,tasks[taskCount]);\r\n        return true;\r\n    }\r\n\r\n    function deleteTask(uint id) public returns(bool){\r\n        delete tasks[id];\r\n        taskCount--;\r\n        return true;\r\n    }\r\n\r\n    function getTasks() public returns(Task[] memory){\r\n        emit allTasks(tasksArray);\r\n        return tasksArray;\r\n    }\r\n\r\n}",
  "sourcePath": "E:\\Blockchain\\Todo\\contracts\\Todo.sol",
  "compiler": {
    "name": "solc",
    "version": "0.8.0+commit.c7dfd78e.Emscripten.clang"
  },
  "schemaVersion": "3.4.4",
  "updatedAt": "2022-04-22T10:58:15.852Z",
  "networkType": "ethereum",
  "devdoc": {
    "kind": "dev",
    "methods": {},
    "version": 1
  },
  "userdoc": {
    "kind": "user",
    "methods": {},
    "version": 1
  }
}