{
  "contractName": "Todo",
  "abi": [
    {
      "anonymous": false,
      "inputs": [
        {
          "indexed": false,
          "internalType": "bool",
          "name": "success",
          "type": "bool"
        },
        {
          "components": [
            {
              "internalType": "uint256",
              "name": "id",
              "type": "uint256"
            },
            {
              "internalType": "string",
              "name": "title",
              "type": "string"
            },
            {
              "internalType": "string",
              "name": "body",
              "type": "string"
            },
            {
              "internalType": "bool",
              "name": "completed",
              "type": "bool"
            }
          ],
          "indexed": false,
          "internalType": "struct Todo.Task",
          "name": "createdtask",
          "type": "tuple"
        }
      ],
      "name": "TaskCreation",
      "type": "event"
    },
    {
      "inputs": [],
      "name": "taskCount",
      "outputs": [
        {
          "internalType": "uint256",
          "name": "",
          "type": "uint256"
        }
      ],
      "stateMutability": "view",
      "type": "function",
      "constant": true
    },
    {
      "inputs": [
        {
          "internalType": "uint256",
          "name": "",
          "type": "uint256"
        }
      ],
      "name": "tasks",
      "outputs": [
        {
          "internalType": "uint256",
          "name": "id",
          "type": "uint256"
        },
        {
          "internalType": "string",
          "name": "title",
          "type": "string"
        },
        {
          "internalType": "string",
          "name": "body",
          "type": "string"
        },
        {
          "internalType": "bool",
          "name": "completed",
          "type": "bool"
        }
      ],
      "stateMutability": "view",
      "type": "function",
      "constant": true
    },
    {
      "inputs": [
        {
          "internalType": "string",
          "name": "title",
          "type": "string"
        },
        {
          "internalType": "string",
          "name": "body",
          "type": "string"
        }
      ],
      "name": "createTask",
      "outputs": [
        {
          "internalType": "bool",
          "name": "",
          "type": "bool"
        }
      ],
      "stateMutability": "nonpayable",
      "type": "function"
    }
  ],
  "bytecode": "0x60806040526000805534801561001457600080fd5b506109c6806100246000396000f3fe608060405234801561001057600080fd5b50600436106100415760003560e01c8063292a4585146100465780638d97767214610076578063b6cb58a5146100a9575b600080fd5b610060600480360381019061005b919061044a565b6100c7565b60405161006d9190610654565b60405180910390f35b610090600480360381019061008b91906104b6565b6101d7565b6040516100a094939291906106ba565b60405180910390f35b6100b1610324565b6040516100be919061069f565b60405180910390f35b60006040518060800160405280600054815260200184815260200183815260200160001515815250600160008054815260200190815260200160002060008201518160000155602082015181600101908051906020019061012992919061032a565b50604082015181600201908051906020019061014692919061032a565b5060608201518160030160006101000a81548160ff02191690831515021790555090505060008081548092919061017c90610885565b91905055507f7719e8c4e9e93867798df5dcd2f845f393b5ed9ff56e05932d6e7df361e48bde6001806000805481526020019081526020016000206040516101c592919061066f565b60405180910390a16001905092915050565b60016020528060005260406000206000915090508060000154908060010180546102009061081f565b80601f016020809104026020016040519081016040528092919081815260200182805461022c9061081f565b80156102795780601f1061024e57610100808354040283529160200191610279565b820191906000526020600020905b81548152906001019060200180831161025c57829003601f168201915b50505050509080600201805461028e9061081f565b80601f01602080910402602001604051908101604052809291908181526020018280546102ba9061081f565b80156103075780601f106102dc57610100808354040283529160200191610307565b820191906000526020600020905b8154815290600101906020018083116102ea57829003601f168201915b5050505050908060030160009054906101000a900460ff16905084565b60005481565b8280546103369061081f565b90600052602060002090601f016020900481019282610358576000855561039f565b82601f1061037157805160ff191683800117855561039f565b8280016001018555821561039f579182015b8281111561039e578251825591602001919060010190610383565b5b5090506103ac91906103b0565b5090565b5b808211156103c95760008160009055506001016103b1565b5090565b60006103e06103db8461073e565b61070d565b9050828152602081018484840111156103f857600080fd5b6104038482856107dd565b509392505050565b600082601f83011261041c57600080fd5b813561042c8482602086016103cd565b91505092915050565b60008135905061044481610979565b92915050565b6000806040838503121561045d57600080fd5b600083013567ffffffffffffffff81111561047757600080fd5b6104838582860161040b565b925050602083013567ffffffffffffffff8111156104a057600080fd5b6104ac8582860161040b565b9150509250929050565b6000602082840312156104c857600080fd5b60006104d684828501610435565b91505092915050565b6104e8816107c7565b82525050565b6104f7816107c7565b82525050565b600061050882610783565b610512818561079f565b93506105228185602086016107ec565b61052b8161095b565b840191505092915050565b600081546105438161081f565b61054d818661078e565b94506001821660008114610568576001811461057a576105ad565b60ff19831686526020860193506105ad565b6105838561076e565b60005b838110156105a557815481890152600182019150602081019050610586565b808801955050505b50505092915050565b60006080830160008084015490506105cd8161086b565b6105da6000870182610636565b506001840185830360208701526105f18382610536565b92505060028401858303604087015261060a8382610536565b9250506003840154905061061d81610851565b61062a60608701826104df565b50819250505092915050565b61063f816107d3565b82525050565b61064e816107d3565b82525050565b600060208201905061066960008301846104ee565b92915050565b600060408201905061068460008301856104ee565b818103602083015261069681846105b6565b90509392505050565b60006020820190506106b46000830184610645565b92915050565b60006080820190506106cf6000830187610645565b81810360208301526106e181866104fd565b905081810360408301526106f581856104fd565b905061070460608301846104ee565b95945050505050565b6000604051905081810181811067ffffffffffffffff821117156107345761073361092c565b5b8060405250919050565b600067ffffffffffffffff8211156107595761075861092c565b5b601f19601f8301169050602081019050919050565b60008190508160005260206000209050919050565b600081519050919050565b600082825260208201905092915050565b600082825260208201905092915050565b600060ff82169050919050565b6000819050919050565b60008115159050919050565b6000819050919050565b82818337600083830152505050565b60005b8381101561080a5780820151818401526020810190506107ef565b83811115610819576000848401525b50505050565b6000600282049050600182168061083757607f821691505b6020821081141561084b5761084a6108fd565b5b50919050565b600061086461085f8361096c565b6107b0565b9050919050565b600061087e6108798361096c565b6107bd565b9050919050565b6000610890826107d3565b91507fffffffffffffffffffffffffffffffffffffffffffffffffffffffffffffffff8214156108c3576108c26108ce565b5b600182019050919050565b7f4e487b7100000000000000000000000000000000000000000000000000000000600052601160045260246000fd5b7f4e487b7100000000000000000000000000000000000000000000000000000000600052602260045260246000fd5b7f4e487b7100000000000000000000000000000000000000000000000000000000600052604160045260246000fd5b6000601f19601f8301169050919050565b60008160001c9050919050565b610982816107d3565b811461098d57600080fd5b5056fea26469706673582212208d306e1c8910c3fdbedade51b41874dc6c2dcc2215cad91d19f0e03191d364c764736f6c63430008000033",
  "immutableReferences": {},
  "source": "// SPDX-License-Identifier: MIT\r\npragma solidity ^0.8.0;\r\n\r\ncontract Todo{\r\n\r\n    uint public taskCount=0;\r\n    struct Task{\r\n        uint id;\r\n        string title;\r\n        string body;\r\n        bool completed;\r\n    }\r\n    event TaskCreation(\r\n        bool success,\r\n        Task createdtask\r\n    );\r\n\r\n    mapping(uint=> Task) public tasks;\r\n\r\n    function createTask(string memory title, string memory body) public returns(bool){\r\n        tasks[taskCount]=Task(taskCount,title,body,false);\r\n        taskCount++;\r\n        emit TaskCreation(true, tasks[taskCount]);\r\n        return true;\r\n    }\r\n}\r\n\r\n// contract TodoFunction{\r\n//     Todo _todoConfig=new Todo();\r\n\r\n// }",
  "sourcePath": "E:\\Blockchain\\Todo\\contracts\\Todo.sol",
  "compiler": {
    "name": "solc",
    "version": "0.8.0+commit.c7dfd78e.Emscripten.clang"
  },
  "schemaVersion": "3.4.4",
  "updatedAt": "2022-04-21T12:15:38.235Z",
  "networkType": "ethereum",
  "devdoc": {
    "kind": "dev",
    "methods": {},
    "version": 1
  },
  "userdoc": {
    "kind": "user",
    "methods": {},
    "version": 1
  }
}